:020000040800F2
:10000000002800205D100008610C0008670C000843
:100010006D0C0008730C0008790C0008000000004B
:100020000000000000000000000000007F0C00083D
:100030008B0C000800000000970C0008A30C0008BF
:10004000A5100008A5100008A5100008A5100008BC
:10005000A5100008A5100008A5100008A5100008AC
:10006000A5100008A5100008A5100008A51000089C
:10007000A5100008A5100008A5100008A51000088C
:10008000A5100008A5100008A5100008A51000087C
:10009000A5100008A5100008A5100008A51000086C
:1000A000A5100008A5100008A5100008A51000085C
:1000B000B10C0008A510000800000000A510000801
:1000C000A51000080000000000000000A5100008B6
:1000D00000000000A5100008A510000800000000A6
:1000E000A5100008A5100008A510000800000000D9
:1000F0000000000000000000000000000000000000
:0C01000000000000000000005FF808F1A3
:10010C0010B5054C237833B9044B13B10448AFF345
:10011C0000800123237010BD140200200000000099
:10012C00FC26000808B5034B1BB103490348AFF389
:10013C00008008BD0000000018020020FC2600080A
:10014C0080B500AF01210C4801F092FA03461A4623
:10015C000A4B1A600221084801F08AFA03461A4633
:10016C00064B5A600421044801F082FA03461A46F1
:10017C00024B9A6000BF80BD000C01404001002082
:10018C0080B582B000AFFFF7DBFF00237B607DE022
:10019C00444A7B6852F8232043497B6841F823206A
:1001AC00424A7B6852F823203E497B6841F8232061
:1001BC003F4A7B6852F823203C497B6841F8232056
:1001CC00394A7B6852F8232036497B6851F8233032
:1001DC009A424CD1334A7B6852F8232033497B68CE
:1001EC0051F823309A4242D1324A7B6852F823208C
:1001FC002E497B6851F823309A4218D02B4A7B68E1
:10020C0052F823202B497B6841F82320274A7B682E
:10021C0052F82330002B35D1274A7B68012142F854
:10022C002310264A7B68C82142F823102AE0234A6F
:10023C007B6852F823305A1E20497B6841F82320F2
:10024C001E4A7B6852F82330002B1BD1174A7B685F
:10025C0052F82330002B04D1194A7B68012142F853
:10026C002310164A7B68C82142F823100AE0144A6E
:10027C007B68002142F823100F4A7B68002142F86A
:10028C00231000E000BF7B6801337B600D4B1B68C3
:10029C007A689A42FFF67CAF00BF00BF0837BD46B4
:1002AC0080BD00BF5000002000000020A0000020F6
:1002BC0040010020F00000203002002094010020BA
:1002CC00800200209001002080B400AF064B1B6818
:1002DC00002B04D0044B00221A60012300E0002301
:1002EC001846BD4680BC70473002002080B400AF79
:1002FC00064B5B68002B04D0044B00225A60012390
:10030C0000E000231846BD4680BC70473002002038
:10031C0080B400AF064B9B68002B04D0044B00222A
:10032C009A60012300E000231846BD4680BC70474C
:10033C003002002080B586B000AF07F10803002220
:10034C001A605A609A60DA60274B9B69264A43F020
:10035C0004039361244B9B6903F004037B607B686B
:10036C00214B9B69204A43F0080393611E4B9B6908
:10037C0003F008033B603B6800224FF6FC711B48FE
:10038C0001F08DF900227821194801F088F94FF617
:10039C00FC73BB600123FB6000233B6102237B6188
:1003AC0007F108031946114800F0E8FF0723BB606A
:1003BC000023FB6001233B6107F1080319460C483D
:1003CC0000F0DCFF7823BB600123FB6000233B6162
:1003DC0002237B6107F108031946054800F0CEFFA4
:1003EC0000BF1837BD4680BD001002400008014018
:1003FC00000C014080B582B000AF78607B68092B9F
:10040C0000F2948001A252F823F000BF41040008CE
:10041C005B040008750400088F040008A904000898
:10042C00C3040008DD040008F704000811050008E7
:10043C001F05000800224FF47C513E4801F02FF9B3
:10044C0001224FF480413B4801F029F96EE0002273
:10045C004FF4C061374801F022F901224FF4F24108
:10046C00344801F01CF961E000224FF4F6413148A8
:10047C0001F015F901224FF410512E4801F00FF93B
:10048C0054E000224FF49E412A4801F008F9012261
:10049C004FF44051274801F002F947E000224FF495
:1004AC00CC41244801F0FBF801224FF4C8512148FB
:1004BC0001F0F5F83AE000224FF4DA411D4801F062
:1004CC00EEF801224FF490511A4801F0E8F82DE0B3
:1004DC0000224FF4FA41174801F0E1F801224FF4E1
:1004EC000071144801F0DBF820E000224FF4E061C9
:1004FC00104801F0D4F801224FF4F0410D4801F0FE
:10050C00CEF813E000224FF4FE410A4801F0C7F880
:10051C000CE000224FF4DE41064801F0C0F8012245
:10052C004FF48051034801F0BAF800BF00BF083700
:10053C00BD4680BD0008014080B582B000AF786038
:10054C007B68032B72D801A252F823F069050008CE
:10055C009D050008D10500080506000800220821A9
:10056C00354801F09CF801221021334801F097F82E
:10057C0001222021304801F092F8012240212E481E
:10058C0001F08DF82D4B1B681846FFF733FF4EE03A
:10059C0001220821284801F082F800221021264867
:1005AC0001F07DF801222021234801F078F8012286
:1005BC004021214801F073F8204B5B681846FFF787
:1005CC0019FF34E0012208211B4801F068F80122D0
:1005DC001021194801F063F800222021164801F07F
:1005EC005EF801224021144801F059F8134B9B6826
:1005FC001846FFF7FFFE1AE0012208210E4801F011
:10060C004EF8012210210C4801F049F8012220215A
:10061C00094801F044F800224021074801F03FF856
:10062C00064BDB681846FFF7E5FE00E000BF00BF95
:10063C000837BD4680BD00BF000C0140E40100201E
:10064C0080B483B000AF786039607B68184A82FB55
:10065C0003129210DB17D31A164A13607968144BE5
:10066C0083FB01239A10CB17D21A13469B00134419
:10067C005B00CA1A0F4B5A603B680D4A82FB03128F
:10068C009210DB17D31A0B4A93603968084B83FB23
:10069C0001239A10CB17D21A13469B0013445B000C
:1006AC00CA1A044BDA6000BF0C37BD4680BC7047D9
:1006BC0067666666E401002080B500AF00F0EEFCD2
:1006CC0000F030F800F0FEFAFFF734FE114801F0AC
:1006DC004FFC142000F034FA00F060FA0E4B1B684B
:1006EC00002BFBD000F05EFB142000F029FA0B4B22
:1006FC001A680B4B1B689A4208DA084B1B685A1C89
:10070C0006490A601846FFF717FFE7E7034B00227C
:10071C001A60E3E7F4020020E4020020D00200207B
:10072C002427000880B590B000AF07F118032822E9
:10073C000021184601F0D4FF3B1D00221A605A60BC
:10074C009A60DA601A610223BB610123BB62102339
:10075C00FB6200237B6307F11803184600F0D0FFFF
:10076C000346002B01D000F026F80F237B600023FA
:10077C00BB600023FB6000233B6100237B613B1DBE
:10078C000021184601F03CFA0346002B01D000F082
:10079C0012F800BF4037BD4680BD80B582B000AFB7
:1007AC00786000F0E1F900F009FAFFF7E9FC00BF0E
:1007BC000837BD4680BD80B400AF72B600BFFEE7FF
:1007CC0080B500AF00221021024800F068FF00BF86
:1007DC0080BD00BF0008014080B500AF0122102190
:1007EC00024800F05CFF00BF80BD00BF0008014064
:1007FC0080B500AF00220821024800F050FF00BF76
:10080C0080BD00BF0008014080B500AF0122082167
:10081C00024800F044FF00BF80BD00BF000801404B
:10082C0080B500AF00220421024800F038FF00BF61
:10083C0080BD00BF0008014080B500AF012204213B
:10084C00024800F02CFF00BF80BD00BF0008014033
:10085C0080B500AF00228021024800F020FF00BFCD
:10086C0080BD00BF0008014080B500AF012280218F
:10087C00024800F014FF00BF80BD00BF000801401B
:10088C0080B500AF00224021024800F008FF00BFF5
:10089C0080BD00BF0008014080B500AF012240219F
:1008AC00024800F0FCFE00BF80BD00BF0008014004
:1008BC0080B500AF00222021024800F0F0FE00BFFE
:1008CC0080BD00BF0008014080B500AF012220218F
:1008DC00024800F0E4FE00BF80BD00BF00080140EC
:1008EC0080B500AF012210210E4800F0D8FE012285
:1008FC0008210C4800F0D3FE01220421094800F025
:10090C00CEFE01228021074800F0C9FE01224021C1
:10091C00044800F0C4FE01222021024800F0BFFE72
:10092C0000BF80BD0008014080B500AF7D4B1B7837
:10093C00643B042B00F2F08001A252F823F000BFBC
:10094C006109000891090008F70900085B0A000812
:10095C00C10A0008744B1B68744A1360744B1B6803
:10096C00744A1360704B1B68734A13606D4B65229D
:10097C001A70FFF7A9FFFFF78FFFFFF72DFFFFF7A7
:10098C0043FFCDE0694B1B68013B684A1360FFF7DE
:10099C005FFFFFF745FFFFF797FFFFF735FF634B4F
:1009AC001B68002B16DC654B1B68604A1360614B9F
:1009BC001B68013B5F4A1360604B1B685E4A136007
:1009CC00584B66221A70FFF74FFFFFF759FFFFF7DE
:1009DC0027FFA5E0574B1B68013B564A1360564B4B
:1009EC001B68013B544A13609AE0504B1B68013B57
:1009FC004E4A1360FFF738FFFFF742FFFFF710FF77
:100A0C004A4B1B68002B17DC474B1B68474A13608B
:100A1C00444B67221A70444B1B68464A1360444B84
:100A2C001B68454A1360FFF7CBFEFFF705FFFFF786
:100A3C0033FFFFF73DFF73E03E4B1B68013B3D4A24
:100A4C0013603D4B1B68013B3B4A136068E0374B1E
:100A5C001B68013B354A1360FFF7B2FEFFF7ECFE53
:100A6C00FFF71AFFFFF724FF304B1B68002B16DC37
:100A7C00324B1B682D4A13602A4B68221A702F4B7D
:100A8C001B682C4A13602C4B1B68013B2A4A1360D1
:100A9C00FFF7A2FEFFF7ACFEFFF70AFF40E0254B85
:100AAC001B68013B234A1360234B1B68013B224A02
:100ABC00136035E01D4B1B68013B1C4A1360FFF7AC
:100ACC008BFEFFF795FEFFF7F3FE184B1B68002B10
:100ADC0017DC154B1B68154A1360124B65221A70F4
:100AEC00134B1B68134A13600F4B1B68124A13609D
:100AFC00FFF7AEFEFFF794FEFFF7E6FEFFF784FE6E
:100B0C000EE00C4B1B68013B0A4A13600A4B1B6836
:100B1C00013B094A136003E0024B64221A7000BFC8
:100B2C0000BF80BDF401002000020020D402002090
:100B3C00F8010020D8020020DC020020FC0100207B
:100B4C0080B483B000AF7860054A7B681360054BB6
:100B5C0000221A6000BF0C37BD4680BC704700BF36
:100B6C00E0020020E402002080B400AF094B1B68B7
:100B7C00002B0BDD074B1B68013B064A1360054B32
:100B8C001B68002B02DC044B01221A6000BFBD461F
:100B9C0080BC7047E0020020E402002080B400AF6B
:100BAC00044B64221A60044B00221A6000BFBD463D
:100BBC0080BC7047E8020020EC02002080B400AF3B
:100BCC00094B1B68002B0BDD074B1B68013B064ACE
:100BDC001360054B1B68002B02DC044B01221A60CE
:100BEC0000BFBD4680BC7047E8020020EC0200202C
:100BFC0080B485B000AF154B9B69144A43F00103D8
:100C0C009361124B9B6903F00103BB60BB680F4BF4
:100C1C00DB690E4A43F08053D3610C4BDB6903F064
:100C2C0080537B607B680A4B5B68FB60FB6823F03E
:100C3C00E063FB60FB6843F08063FB60044AFB6885
:100C4C00536000BF1437BD4680BC70470010024093
:100C5C000000014080B400AFFEE780B400AFFEE7B7
:100C6C0080B400AFFEE780B400AFFEE780B400AF05
:100C7C00FEE780B400AF00BFBD4680BC704780B4B7
:100C8C0000AF00BFBD4680BC704780B400AF00BF52
:100C9C00BD4680BC704780B500AF00F045FA00BF80
:100CAC0080BD000080B500AF024801F0ADF900BF77
:100CBC0080BD00BFF402002080B400AF00BFBD4671
:100CCC0080BC704780B586B000AF07F108030022E6
:100CDC001A605A609A60DA603B4600221A605A60C9
:100CEC001D4B4FF080421A601B4B40F21F325A6072
:100CFC00194B00229A60184B6322DA60164B0022C3
:100D0C001A61154B00229A61134801F0E1F8034671
:100D1C00002B01D0FFF74FFD4FF48053BB6007F160
:100D2C00080319460C4801F077FA0346002B01D052
:100D3C00FFF741FD00233B6000237B603B461946D7
:100D4C00054801F03FFC0346002B01D0FFF733FDB3
:100D5C0000BF1837BD4680BDF402002080B584B0BA
:100D6C0000AF78607B681B68B3F1804F13D10C4BDC
:100D7C00DB690B4A43F00103D361094BDB6903F0D8
:100D8C000103FB60FB68002200211C2000F0BFFA6D
:100D9C001C2000F0D8FA00BF1037BD4680BD00BF44
:100DAC000010024080B500AF9F4B1B68013B032B2A
:100DBC0000F2338101A252F823F000BFD90D0008D4
:100DCC00310E0008DF0E00088D0F0008974B1B68D2
:100DDC00002B03D0FFF7E2FEFFF7A6FDFFF774FA36
:100DEC000346002B15D0904B02221A60904B6422C4
:100DFC001A70904B1B68904A1360FFF771FD01222B
:100E0C0004218E4800F04BFC012220218B4800F07D
:100E1C0046FC8B4B1B688B4A126811461846FFF731
:100E2C000FFCFEE0814B1B68002B09D0FFF7B6FED0
:100E3C000421824800F04BFC2021804800F047FC44
:100E4C00FFF742FA0346002B12D0774B03221A60AD
:100E5C007D4B1B68784A1360FFF742FD0122082185
:100E6C00764800F01CFC01224021744800F017FC6D
:100E7C00FFF73CFA0346002B04D06F4B1B68013381
:100E8C006D4A1360FFF744FA0346002B18D06A4BE7
:100E9C001B68684A1360674B1A686C4B1B689A4254
:100EAC0007DA6A4B1A68634B1B68D31A664A1360DD
:100EBC0006E0604B1A68644B1B68D31A634A1360D4
:100ECC00594B1B685C4A126811461846FFF7B8FB71
:100EDC00A7E0564B1B68002B09D0FFF75FFE0821DB
:100EEC00564800F0F4FB4021544800F0F0FBFFF7AB
:100EFC00EBF90346002B12D04B4B04221A60534BD8
:100F0C001B684D4A1360FFF7EBFC012210214B4884
:100F1C0000F0C5FB01228021484800F0C0FBFFF720
:100F2C00E5F90346002B04D0434B1B680133424ABE
:100F3C001360FFF7EDF90346002B18D03E4B1B68EE
:100F4C00414A13603B4B1A68404B1B689A4207DAC4
:100F5C003E4B1A683C4B1B68D31A364A136006E0AA
:100F6C00344B1A68384B1B68D31A384A13602E4B13
:100F7C001B68314A126811461846FFF761FB50E0B6
:100F8C002A4B1B68002B09D0FFF708FE10212B48B9
:100F9C0000F09DFB8021294800F099FBFFF794F9A4
:100FAC000346002B08D0204B01221A60214B1B68F2
:100FBC00214A1360FFF794FCFFF798F90346002BC6
:100FCC0004D01D4B1B6801331B4A1360FFF7A0F9BB
:100FDC000346002B18D0184B1B681C4A1360154B8A
:100FEC001A681A4B1B689A4207DA184B1A68164B88
:100FFC001B68D31A0F4A136006E00E4B1A68134B8A
:10100C001B68D31A104A1360074B1B680A4A1268F4
:10101C0011461846FFF714FB03E0034B01221A603C
:10102C0000BF00BF80BD00BF08020020EC02002002
:10103C00F4010020F8010020F0020020000801401B
:10104C00D8020020DC020020FC010020000200205D
:10105C000C480D490D4A002302E0D458C450043307
:10106C00C4188C42F9D30A4A0A4C002301E01360DD
:10107C000432A242FBD3FFF71FFE01F00DFBFFF77A
:10108C001BFB7047000000201402002040270008C2
:10109C001402002040030020FEE7000080B500AFE2
:1010AC00084B1B68074A43F010031360032000F041
:1010BC0023F90F2000F008F8FFF79AFD00231846DB
:1010CC0080BD00BF0020024080B582B000AF7860C8
:1010DC00124B1A68124B1B7819464FF47A73B3FBF8
:1010EC00F1F3B2FBF3F3184600F03BF90346002B87
:1010FC0001D001230EE07B680F2B0AD800227968FF
:10110C004FF0FF3000F003F9064A7B6813600023B0
:10111C0000E0012318460837BD4680BD04020020BC
:10112C00100200200C02002080B400AF054B1B788D
:10113C001A46054B1B681344034A136000BFBD4697
:10114C0080BC7047100200203C03002080B400AF2C
:10115C00024B1B681846BD4680BC70473C03002000
:10116C0080B485B000AF78607B6803F00703FB6048
:10117C000C4BDB68BB60BA684FF6FF031340BB60D7
:10118C00FB681A02BB68134343F0BF6343F400339C
:10119C00BB60044ABB68D36000BF1437BD4680BC3B
:1011AC00704700BF00ED00E080B400AF044BDB687B
:1011BC001B0A03F007031846BD4680BC704700BFEE
:1011CC0000ED00E080B483B000AF0346FB7197F9EB
:1011DC000730002B0BDBFB7903F01F02064997F954
:1011EC0007305B09012000FA02F241F8232000BF0E
:1011FC000C37BD4680BC704700E100E080B483B082
:10120C0000AF03463960FB7197F90730002B0ADBFE
:10121C003B68DAB20C4997F907301201D2B20B4491
:10122C0083F800230AE03B68DAB20849FB7903F043
:10123C000F03043B1201D2B20B441A7600BF0C37D9
:10124C00BD4680BC704700BF00E100E000ED00E04F
:10125C0080B489B000AFF860B9607A60FB6803F0C5
:10126C000703FB61FB69C3F10703042B28BF0423AD
:10127C00BB61FB690433062B02D9FB69033B00E01D
:10128C0000237B614FF0FF32BB6902FA03F3DA43B0
:10129C00BB681A407B699A404FF0FF317B6901FAB9
:1012AC0003F3D9437B680B40134318462437BD46E0
:1012BC0080BC704780B582B000AF78607B68013B22
:1012CC00B3F1807F01D301230FE00A4A7B68013B15
:1012DC0053600F214FF0FF30FFF790FF054B0022BA
:1012EC009A60044B07221A60002318460837BD4643
:1012FC0080BD00BF10E000E080B582B000AF786028
:10130C007868FFF72DFF00BF0837BD4680BD80B55C
:10131C0086B000AF0346B9607A60FB7300237B6133
:10132C00FFF742FF78617A68B9687869FFF790FF38
:10133C00024697F90F3011461846FFF75FFF00BFC2
:10134C001837BD4680BD80B582B000AF0346FB7137
:10135C0097F907301846FFF735FF00BF0837BD4631
:10136C0080BD80B582B000AF78607868FFF7A2FFCF
:10137C00034618460837BD4680BD000080B48BB0CC
:10138C0000AF7860396000237B6200233B6248E148
:10139C0001227B6A02FA03F3FB613B681B68FA6962
:1013AC001340BB61BA69FB699A4240F037813B68D4
:1013BC005B68A34A93425ED0A14A934275D8A14A76
:1013CC00934258D09F4A93426FD89F4A934252D02F
:1013DC009D4A934269D89D4A93424CD09B4A934272
:1013EC0063D89B4A934246D0994A93425DD8122BBC
:1013FC002AD8122B59D801A252F823F083140008D2
:10140C005D1400086F140008B1140008B71400082C
:10141C00B7140008B7140008B7140008B714000874
:10142C00B7140008B7140008B7140008B714000864
:10143C00B7140008B7140008B7140008B714000854
:10144C006514000879140008824A934213D02CE0EA
:10145C003B68DB683B6229E03B68DB6804333B623A
:10146C0024E03B68DB6808333B621FE03B68DB68C9
:10147C000C333B621AE03B689B68002B02D10423BF
:10148C003B6213E03B689B68012B05D108233B6250
:10149C007B68FA691A6109E008233B627B68FA6988
:1014AC005A6103E000233B6200E000BFBB69FF2BE5
:1014BC0001D87B6801E07B6804337B61BB69FF2B3F
:1014CC0002D87B6A9B0002E07B6A083B9B003B6175
:1014DC007B691A680F213B6901FA03F3DB431A405D
:1014EC00396A3B6901FA03F31A437B691A603B685A
:1014FC005B6803F08053002B00F09080564B9B6987
:10150C00554A43F001039361534B9B6903F001036C
:10151C00BB60BB68514A7B6A9B08023352F823308C
:10152C00FB607B6A03F003039B000F2202FA03F3B8
:10153C00DB43FA681340FB607B68494A93420DD049
:10154C007B68484A934207D07B68474A934201D153
:10155C00022304E0032302E0012300E000237A6A63
:10156C0002F0030292009340FA681343FB603B497C
:10157C007B6A9B080233FA6841F823203B685B685E
:10158C0003F48033002B06D0384B1A683749BB69FB
:10159C0013430B6006E0354B1A68BB69DB433349D8
:1015AC0013400B603B685B6803F40033002B06D0E0
:1015BC002E4B5A682D49BB6913434B6006E02B4BED
:1015CC005A68BB69DB43294913404B603B685B6835
:1015DC0003F48013002B06D0244B9A682349BB6973
:1015EC0013438B6006E0214B9A68BB69DB431F49B0
:1015FC0013408B603B685B6803F40013002B06D030
:10160C001A4BDA681949BB691343CB6006E0174BD8
:10161C00DA68BB69DB4315491340CB607B6A013345
:10162C007B623B681A687B6A22FA03F3002B7FF417
:10163C00AFAE00BF00BF2C37BD4680BC704700BFAB
:10164C0000003210000031100000221000002110A8
:10165C0000001210000011100010024000000140A8
:10166C0000080140000C0140001001400004014042
:10167C0080B485B000AF78600B467B807B689A683D
:10168C007B881340002B02D00123FB7301E0002365
:10169C00FB73FB7B18461437BD4680BC704780B487
:1016AC0083B000AF78600B467B8013467B707B78F1
:1016BC00002B03D07A887B681A6103E07B881A04BC
:1016CC007B681A6100BF0C37BD4680BC704780B484
:1016DC0085B000AF78600B467B807B68DB68FB6075
:1016EC007A88FB6813401A04FB68D9437B880B404B
:1016FC001A437B681A6100BF1437BD4680BC704723
:10170C0080B586B000AF78607B68002B01D10123D7
:10171C006CE27B681B6803F00103002B00F08780F0
:10172C00924B5B6803F00C03042B0CD08F4B5B6863
:10173C0003F00C03082B12D18C4B5B6803F4803341
:10174C00B3F5803F0BD1894B1B6803F40033002B9E
:10175C006CD07B685B68002B68D1012346E27B6808
:10176C005B68B3F5803F06D1804B1B687F4A43F41E
:10177C00803313602EE07B685B68002B0CD17B4BB5
:10178C001B687A4A23F480331360784B1B68774AC2
:10179C0023F4802313601DE07B685B68B3F5A02FF6
:1017AC000CD1724B1B68714A43F4802313606F4B4E
:1017BC001B686E4A43F4803313600BE06B4B1B6861
:1017CC006A4A23F480331360684B1B68674A23F41E
:1017DC00802313607B685B68002B13D0FFF7B6FC8B
:1017EC00386108E0FFF7B2FC02463B69D31A642B60
:1017FC0001D90323FAE15D4B1B6803F40033002B82
:10180C00F0D014E0FFF7A2FC386108E0FFF79EFC73
:10181C0002463B69D31A642B01D90323E6E1534BEF
:10182C001B6803F40033002BF0D100E000BF7B6891
:10183C001B6803F00203002B63D04C4B5B6803F076
:10184C000C03002B0BD0494B5B6803F00C03082BEB
:10185C001CD1464B5B6803F48033002B16D1434BF1
:10186C001B6803F00203002B05D07B681B69012B5E
:10187C0001D00123BAE13D4B1B6823F0F8027B68D1
:10188C005B69DB00394913430B603AE07B681B69E9
:10189C00002B20D0364B01221A60FFF757FC386121
:1018AC0008E0FFF753FC02463B69D31A022B01D91F
:1018BC0003239BE12D4B1B6803F00203002BF0D09C
:1018CC002A4B1B6823F0F8027B685B69DB00274915
:1018DC0013430B6015E0264B00221A60FFF736FC11
:1018EC00386108E0FFF732FC02463B69D31A022B41
:1018FC0001D903237AE11D4B1B6803F00203002B73
:10190C00F0D17B681B6803F00803002B3AD07B688E
:10191C009B69002B19D0174B01221A60FFF716FC9C
:10192C00386108E0FFF712FC02463B69D31A022B20
:10193C0001D903235AE10D4B5B6A03F00203002B20
:10194C00F0D0012000F0A6FA1CE00A4B00221A602D
:10195C00FFF7FCFB38610FE0FFF7F8FB02463B6931
:10196C00D31A022B08D9032340E100BF0010024018
:10197C0000004242800442429E4B5B6A03F0020329
:10198C00002BE9D17B681B6803F00403002B00F0EB
:10199C00A6800023FB75974BDB6903F08053002B6B
:1019AC000DD1944BDB69934A43F08053D361914B37
:1019BC00DB6903F08053BB60BB680123FB758E4B66
:1019CC001B6803F48073002B18D18B4B1B688A4A5D
:1019DC0043F480731360FFF7B9FB386108E0FFF73D
:1019EC00B5FB02463B69D31A642B01D90323FDE0F6
:1019FC00814B1B6803F48073002BF0D07B68DB6891
:101A0C00012B06D17B4B1B6A7A4A43F0010313620C
:101A1C002DE07B68DB68002B0CD1764B1B6A754A7A
:101A2C0023F001031362734B1B6A724A23F0040305
:101A3C0013621CE07B68DB68052B0CD16D4B1B6AB9
:101A4C006C4A43F0040313626A4B1B6A694A43F005
:101A5C00010313620BE0674B1B6A664A23F0010318
:101A6C001362644B1B6A634A23F0040313627B68A2
:101A7C00DB68002B15D0FFF769FB38610AE0FFF734
:101A8C0065FB02463B69D31A41F28832934201D975
:101A9C000323ABE0574B1B6A03F00203002BEED081
:101AAC0014E0FFF753FB38610AE0FFF74FFB0246E7
:101ABC003B69D31A41F28832934201D9032395E052
:101ACC004C4B1B6A03F00203002BEED1FB7D012B68
:101ADC0005D1484BDB69474A23F08053D3617B68BF
:101AEC00DB69002B00F08180424B5B6803F00C0338
:101AFC00082B61D07B68DB69022B46D13F4B00225F
:101B0C001A60FFF723FB386108E0FFF71FFB024662
:101B1C003B69D31A022B01D9032367E0354B1B68B1
:101B2C0003F00073002BF0D17B681B6AB3F5803F88
:101B3C0008D1304B5B6823F400327B689B682D49DD
:101B4C0013434B602B4B5B6823F474127B68196A4C
:101B5C007B685B6A0B43274913434B60274B01227D
:101B6C001A60FFF7F3FA386108E0FFF7EFFA024664
:101B7C003B69D31A022B01D9032337E01D4B1B6899
:101B8C0003F00073002BF0D02FE01C4B00221A60E6
:101B9C00FFF7DCFA386108E0FFF7D8FA02463B6938
:101BAC00D31A022B01D9032320E0124B1B6803F03C
:101BBC000073002BF0D118E07B68DB69012B01D19D
:101BCC00012313E00B4B5B68FB60FB6803F4803272
:101BDC007B681B6A9A4206D1FB6803F470127B681F
:101BEC005B6A9A4201D0012300E0002318461837A3
:101BFC00BD4680BD001002400070004060004242B3
:101C0C0080B584B000AF786039607B68002B01D15F
:101C1C000123D0E06A4B1B6803F007033A689A4231
:101C2C0010D9674B1B6823F0070265493B681343C7
:101C3C000B60634B1B6803F007033A689A4201D0B0
:101C4C000123B8E07B681B6803F00203002B20D053
:101C5C007B681B6803F00403002B05D0594B5B68B1
:101C6C00584A43F4E06353607B681B6803F0080335
:101C7C00002B05D0534B5B68524A43F460535360BE
:101C8C00504B5B6823F0F0027B689B684D49134313
:101C9C004B607B681B6803F00103002B40D07B6812
:101CAC005B68012B07D1474B1B6803F40033002BF7
:101CBC0015D101237FE07B685B68022B07D1414B78
:101CCC001B6803F00073002B09D1012373E03D4B1B
:101CDC001B6803F00203002B01D101236BE0394B8D
:101CEC005B6823F003027B685B68364913434B60E7
:101CFC00FFF72CFAF8600AE0FFF728FA0246FB68B7
:101D0C00D31A41F28832934201D9032353E02D4B6D
:101D1C005B6803F00C027B685B689B009A42EBD11A
:101D2C00274B1B6803F007033A689A4210D2244BE6
:101D3C001B6823F0070222493B6813430B60204BBE
:101D4C001B6803F007033A689A4201D0012332E082
:101D5C007B681B6803F00403002B08D0194B5B68ED
:101D6C0023F4E0627B68DB68164913434B607B68A5
:101D7C001B6803F00803002B09D0124B5B6823F49B
:101D8C0060527B681B69DB000E4913434B6000F00B
:101D9C0021F802460B4B5B681B0903F00F030A4941
:101DAC00CB5C22FA03F3094A1360094B1B681846F3
:101DBC00FFF78AF9002318461037BD4680BD00BFD7
:101DCC0000200240001002402827000804020020D6
:101DDC000C02002090B48AB000AF2A4B3C1D0FCBF4
:101DEC0084E80F0040F201233B800023FB610023B9
:101DFC00BB6100237B6200237B6100233B62224B8F
:101E0C005B68FB61FB6903F00C03042B02D0082B0D
:101E1C0003D02DE01D4B3B622DE0FB699B0C03F0C6
:101E2C000F0307F12802134413F8243C7B61FB6970
:101E3C0003F48033002B13D0134B5B685B0C03F063
:101E4C00010307F12802134413F8283CBB617B699A
:101E5C000E4A02FB03F2BB69B2FBF3F37B6204E0B4
:101E6C007B690B4A02FB03F37B627B6A3B6202E0F9
:101E7C00064B3B6200BF3B6A18462837BD4690BCF8
:101E8C00704700BF142700080010024000127A00AF
:101E9C0000093D0080B485B000AF78600A4B1B6828
:101EAC000A4AA2FB03235B0A7A6802FB03F3FB607A
:101EBC0000BFFB685A1EFA60002BF9D100BF00BFAF
:101ECC001437BD4680BC704704020020D34D62100D
:101EDC0080B582B000AF78607B68002B01D1012304
:101EEC0041E07B6893F83D30DBB2002B06D17B6878
:101EFC00002283F83C207868FEF730FF7B680222D2
:101F0C0083F83D207B681A687B68043319461046B9
:101F1C0000F06AFA7B68012283F846207B68012274
:101F2C0083F83E207B68012283F83F207B680122E6
:101F3C0083F840207B68012283F841207B680122D2
:101F4C0083F842207B68012283F843207B680122BE
:101F5C0083F844207B68012283F845207B680122AA
:101F6C0083F83D20002318460837BD4680BD00008D
:101F7C0080B485B000AF78607B6893F83D30DBB2FD
:101F8C00012B01D0012335E07B68022283F83D2030
:101F9C007B681B68DA687B681B6842F00102DA60B8
:101FAC007B681B68164A934209D07B681B68B3F1A7
:101FBC00804F04D07B681B68124A934211D17B6816
:101FCC001B689B6803F00703FB60FB68062B10D0B3
:101FDC007B681B681A687B681B6842F001021A60F8
:101FEC0007E07B681B681A687B681B6842F001027B
:101FFC001A60002318461437BD4680BC704700BFDA
:10200C00002C01400004004080B582B000AF786025
:10201C007B681B681B6903F00203022B22D17B68CF
:10202C001B68DB6803F00203022B1BD17B681B6867
:10203C006FF002021A617B6801221A777B681B68B9
:10204C009B6903F00303002B03D0786800F0B1F90F
:10205C0005E0786800F0A4F9786800F0B3F97B68C3
:10206C0000221A777B681B681B6903F00403042B9E
:10207C0022D17B681B68DB6803F00403042B1BD1A3
:10208C007B681B686FF004021A617B6802221A7766
:10209C007B681B689B6903F44073002B03D0786842
:1020AC0000F087F905E0786800F07AF9786800F0BC
:1020BC0089F97B6800221A777B681B681B6903F01F
:1020CC000803082B22D17B681B68DB6803F008032C
:1020DC00082B1BD17B681B686FF008021A617B68A8
:1020EC0004221A777B681B68DB6903F00303002B5F
:1020FC0003D0786800F05DF905E0786800F050F9DD
:10210C00786800F05FF97B6800221A777B681B689F
:10211C001B6903F01003102B22D17B681B68DB6852
:10212C0003F01003102B1BD17B681B686FF010029F
:10213C001A617B6808221A777B681B68DB6903F4D9
:10214C004073002B03D0786800F033F905E0786811
:10215C0000F026F9786800F035F97B6800221A77D0
:10216C007B681B681B6903F00103012B0ED17B6894
:10217C001B68DB6803F00103012B07D17B681B682C
:10218C006FF001021A617868FEF707FB7B681B6829
:10219C001B6903F08003802B0ED17B681B68DB6806
:1021AC0003F08003802B07D17B681B686FF08002E3
:1021BC001A61786800F067FA7B681B681B6903F08A
:1021CC004003402B0ED17B681B68DB6803F0400397
:1021DC00402B07D17B681B686FF040021A6178684E
:1021EC0000F0F9F87B681B681B6903F02003202BB7
:1021FC000ED17B681B68DB6803F02003202B07D112
:10220C007B681B686FF020021A61786800F032FA64
:10221C0000BF0837BD4680BD80B584B000AF786084
:10222C0039607B6893F83C30012B01D10223B3E079
:10223C007B68012283F83C207B68022283F83D20D6
:10224C007B681B689B68FB60FB6823F07703FB6073
:10225C00FB6823F47F43FB607B681B68FA689A6019
:10226C003B681B68B3F5005F3ED0B3F5005F00F22E
:10227C008780B3F5805F00F08580B3F5805F7FD8F1
:10228C00702B1AD0702B7BD8602B50D0602B77D84A
:10229C00502B3CD0502B73D8402B58D0402B6FD8A0
:1022AC00302B64D0302B6BD8202B60D0202B67D8F0
:1022BC00002B5CD0102B5AD062E07B6818683B680E
:1022CC0099683B685A683B68DB6800F05CF97B688E
:1022DC001B689B68FB60FB6843F07703FB607B68C3
:1022EC001B68FA689A604EE07B6818683B689968CE
:1022FC003B685A683B68DB6800F045F97B681B68F3
:10230C009A687B681B6842F480429A603BE07B6869
:10231C0018683B6859683B68DB681A4600F0BCF8E3
:10232C007B681B685021184600F013F92BE07B6882
:10233C0018683B6859683B68DB681A4600F0DAF8A5
:10234C007B681B686021184600F003F91BE07B6872
:10235C0018683B6859683B68DB681A4600F09CF8C3
:10236C007B681B684021184600F0F3F80BE07B6893
:10237C001A683B681B681946104600F0EAF802E040
:10238C0000BF00E000BF7B68012283F83D207B6822
:10239C00002283F83C20002318461037BD4680BD30
:1023AC0080B483B000AF786000BF0C37BD4680BCF2
:1023BC00704780B483B000AF786000BF0C37BD4667
:1023CC0080BC704780B483B000AF786000BF0C371E
:1023DC00BD4680BC704780B483B000AF786000BF4E
:1023EC000C37BD4680BC704780B485B000AF7860B8
:1023FC0039607B681B68FB607B68254A934207D079
:10240C007B68B3F1804F03D07B68224A934208D19A
:10241C00FB6823F07003FB603B685B68FA6813434E
:10242C00FB607B681A4A934207D07B68B3F1804FFC
:10243C0003D07B68174A934208D1FB6823F440739E
:10244C00FB603B68DB68FA681343FB60FB6823F0B6
:10245C0080023B685B691343FB607B68FA681A6017
:10246C003B689A687B68DA623B681A687B689A6298
:10247C007B68074A934203D13B681A697B681A63ED
:10248C007B6801225A6100BF1437BD4680BC70477F
:10249C00002C01400004004080B487B000AFF8600D
:1024AC00B9607A60FB681B6A7B61FB681B6A23F06E
:1024BC000102FB681A62FB689B693B613B6923F074
:1024CC00F0033B617B681B013A6913433B617B69F9
:1024DC0023F00A037B617A69BB6813437B61FB6859
:1024EC003A699A61FB687A691A6200BF1C37BD466B
:1024FC0080BC704780B487B000AFF860B9607A6078
:10250C00FB681B6A23F01002FB681A62FB689B696C
:10251C007B61FB681B6A3B617B6923F470437B61C5
:10252C007B681B037A6913437B613B6923F0A0032F
:10253C003B61BB681B013A6913433B61FB687A69D9
:10254C009A61FB683A691A6200BF1C37BD4680BCB1
:10255C00704780B485B000AF786039607B689B6849
:10256C00FB60FB6823F07003FB603A68FB68134365
:10257C0043F00703FB607B68FA689A6000BF14376E
:10258C00BD4680BC704780B487B000AFF860B960BE
:10259C007A603B60FB689B687B617B6923F47F43BB
:1025AC007B613B681A027B681A43BB6813437A69E8
:1025BC0013437B61FB687A699A6000BF1C37BD4688
:1025CC0080BC704780B485B000AF786039607B68A0
:1025DC0093F83C30012B01D1022341E07B680122AE
:1025EC0083F83C207B68022283F83D207B681B68C3
:1025FC005B68FB607B681B689B68BB60FB6823F0B7
:10260C007003FB603B681B68FA681343FB607B68D4
:10261C001B68FA685A607B681B68144A934209D09D
:10262C007B681B68B3F1804F04D07B681B68104A31
:10263C0093420CD1BB6823F08003BB603B685B68A2
:10264C00BA681343BB607B681B68BA689A607B6886
:10265C00012283F83D207B68002283F83C20002374
:10266C0018461437BD4680BC704700BF002C014093
:10267C000004004080B483B000AF786000BF0C371A
:10268C00BD4680BC704780B483B000AF786000BF9B
:10269C000C37BD4680BC704770B500260C4D0D4CF8
:1026AC00641BA410A64209D100F022F800260A4DA2
:1026BC000A4C641BA410A64205D170BD55F8043B0E
:1026CC0098470136EEE755F8043B98470136F2E798
:1026DC003827000838270008382700083C2700084E
:1026EC0003460244934200D1704703F8011BF9E7FB
:1026FC00F8B500BFF8BC08BC9E467047F8B500BFE3
:08270C00F8BC08BC9E467047B2
:1027140002030405060708090A0B0C0D0E0F10101E
:102724000400000000000000000000000102030497
:042734000607080983
:042738003101000863
:04273C000D01000883
:102740000100000000000000000000000000000088
:102750000000000000000000000000000000000079
:102760000000000000000000000000000000000069
:102770000000000000000000000000000000000059
:102780000000000000000000000000000000000049
:102790000100000000000000000000000000000038
:1027A0000000000000000000000000000000000029
:1027B0000000000000000000000000000000000019
:1027C0000000000000000000000000000000000009
:1027D00000000000000000000000000000000000F9
:1027E00001000000000000000000000000000000E8
:1027F00000000000000000000000000000000000D9
:1028000000000000000000000000000000000000C8
:1028100000000000000000000000000000000000B8
:1028200000000000000000000000000000000000A8
:102830000100000000000000000000000000000097
:102840000000000000000000000000000000000088
:102850000000000000000000000000000000000078
:102860000000000000000000000000000000000068
:102870000000000000000000000000000000000058
:102880000100000000000000000000000000000047
:102890000000000000000000000000000000000038
:1028A0000000000000000000000000000000000028
:1028B0000000000000000000000000000000000018
:1028C0000000000000000000000000000000000008
:1028D00003000000C800000000000000000000002D
:1028E00000000000000000000000000000000000E8
:1028F00000000000000000000000000000000000D8
:1029000000000000000000000000000000000000C7
:1029100000000000000000000000000000000000B7
:1029200000000000010000000200000003000000A1
:102930000400000064000000050000000200000028
:10294000030000000024F40001000000100000005B
:042950000100000082
:040000050800105D82
:00000001FF
